:100000000C942A000C943F000C943F000C943F0089
:100010000C943F000C943F000C943F000C943F0064
:100020000C943F000C943F000C943F000C943F0054
:100030000C943F000C943F000C943F000C943F0044
:100040000C943F000C943F000C943F000C943F0034
:100050000C943F0011241FBECFE5D8E0DEBFCDBF1A
:1000600011E0A0E6B0E0ECEDFAE202C005900D92DE
:10007000A03CB107D9F70E94860C0C946C150C9427
:100080000000EF92FF920F931F937B018C0120E001
:1000900030E040E05FE40E94410388238CF0C80117
:1000A000B70120E030E040E05FE40E94B9010E9427
:1000B000A1039B01AC01205030404040504806C095
:1000C000C801B7010E94A1039B01AC01B901CA019B
:1000D0001F910F91FF90EF900895A0E0B0E0E3E74B
:1000E000F0E00C942C15DC012B01FA019C9192306C
:1000F00008F439C1EB018881823008F433C19430AF
:1001000069F4843009F02FC111969C91119789816F
:10011000981709F428C1A8EBB1E025C1843009F48F
:1001200021C18230A9F4923009F01DC19A01AD01BC
:1001300088E0EA010990AE01E90109929E0181502F
:10014000C1F7E201898111969C918923818308C1BD
:10015000923009F407C112962D903C901397EB0151
:100160008A819B811496AD90BD90CD90DC901797BD
:10017000EC80FD800E811F819101281B390BB90194
:1001800037FF04C066277727621B730B6032710547
:100190000CF061C0121613066CF537014801062EEB
:1001A00004C096948794779467940A94D2F721E0D8
:1001B00030E040E050E004C0220F331F441F551FC1
:1001C0006A95D2F721503040404050402E213F21C7
:1001D00040235123211531054105510521F021E02E
:1001E00030E040E050E079018A01E628F72808294C
:1001F00019293CC0232BD1F1260E371E35014601AB
:10020000062E04C096948794779467940A94D2F744
:1002100021E030E040E050E004C0220F331F441FD3
:10022000551F6A95D2F721503040404050402A2156
:100230003B214C215D21211531054105510521F05E
:1002400021E030E040E050E059016A01A628B728DB
:10025000C828D9280BC0821593052CF01C01AA24AC
:10026000BB24650103C0EE24FF24870111969C91F5
:10027000D20111968C91981709F445C0992339F051
:10028000A80197012A193B094C095D0906C0A6017E
:1002900095012E193F09400B510B57FD08C01182E3
:1002A0003382228224833583468357831DC081E0B5
:1002B00081833382228288279927DC01821B930B5A
:1002C000A40BB50B84839583A683B7830DC0220F3F
:1002D000331F441F551F24833583468357838281F0
:1002E000938101979383828324813581468157814D
:1002F000DA01C9010197A109B1098F5F9F4FAF4F83
:10030000BF4328F30BC0918333822282EA0CFB1C8B
:100310000C1D1D1DE482F5820683178383E0808314
:10032000248135814681578157FF1AC0C901AA2708
:1003300097FDA095BA2F81709070A070B0705695FF
:10034000479537952795822B932BA42BB52B848328
:100350009583A683B7838281938101969383828359
:10036000DF0101C0D201CD01CDB7DEB7E2E10C94CF
:100370004815A0E2B0E0EFEBF1E00C94381569838A
:100380007A838B839C832D833E834F835887E9E058
:10039000EE2EF12CEC0EFD1ECE010196B7010E944F
:1003A000CA048E010F5E1F4FCE010596B8010E9450
:1003B000CA048A8991E089278A8BC701B801AE01F6
:1003C000475E5F4F0E946D000E94F503A096E6E035
:1003D0000C945415A0E2B0E0E0EFF1E00C94381575
:1003E00069837A838B839C832D833E834F835887D5
:1003F000F9E0EF2EF12CEC0EFD1ECE010196B701B7
:100400000E94CA048E010F5E1F4FCE010596B801EF
:100410000E94CA04C701B801AE01475E5F4F0E9447
:100420006D000E94F503A096E6E00C945415A0E23E
:10043000B0E0EDE1F2E00C942C1569837A838B83B4
:100440009C832D833E834F835887CE010196BE0146
:10045000675F7F4F0E94CA04CE010596BE016F5EA2
:100460007F4F0E94CA049985923088F08989823032
:10047000C8F0943019F4823051F404C0843029F467
:10048000923081F488EB91E0C6C0923049F420E0CC
:100490009A858A89981321E02A87CE010996BBC0E4
:1004A000823049F420E09A858A89981321E02A8BCA
:1004B000CE014196B0C02D843E844F8458886D880B
:1004C0007E888F88988CEE24FF248701AA24BB2481
:1004D000650140E050E060E070E0E0E0F0E0C10184
:1004E00081709070892BE9F0E60CF71C081D191D2E
:1004F0009A01AB012A0D3B1D4C1D5D1D80E090E073
:10050000A0E0B0E0E614F7040805190520F481E046
:1005100090E0A0E0B0E0BA01A901480F591F6A1F9E
:100520007B1FAA0CBB1CCC1CDD1C97FE08C081E005
:1005300090E0A0E0B0E0A82AB92ACA2ADB2A3196C6
:10054000E032F10549F0660C771C881C991C569422
:10055000479437942794C3CFFA85EA892B893C893D
:100560008B859C85280F391F2E5F3F4F17C0CA010E
:1005700081709070892B61F016950795F794E79438
:1005800080E090E0A0E0B0E8E82AF92A0A2B1B2BD3
:1005900076956795579547952F5F3F4F77FDE7CF46
:1005A0000CC0440F551F661F771F17FD4160EE0CEE
:1005B000FF1C001F111F21503040403090E05907B0
:1005C00090E0690790E4790760F32B8F3C8FDB01A3
:1005D000CA018F779070A070B07080349105A1052A
:1005E000B10561F447FD0AC0E114F10401051105EC
:1005F00029F0405C5F4F6F4F7F4F40781A8EFE1797
:1006000011F081E08A8F4D8F5E8F6F8F78A383E02A
:10061000898FCE0149960E94F503A096E2E10C94E1
:100620004815A8E1B0E0E7E1F3E00C9438156983E0
:100630007A838B839C832D833E834F83588789E005
:10064000E82EF12CEC0EFD1ECE010196B7010E94A2
:10065000CA048E010F5E1F4FCE010596B8010E949D
:10066000CA048985823040F08989823028F0C70128
:10067000B8010E94420501C08FEF6896E6E00C9435
:100680005415A8E1B0E0E7E4F3E00C943815698371
:100690007A838B839C832D833E834F83588789E0A5
:1006A000E82EF12CEC0EFD1ECE010196B7010E9442
:1006B000CA048E010F5E1F4FCE010596B8010E943D
:1006C000CA048985823040F08989823028F0C701C8
:1006D000B8010E94420501C08FEF6896E6E00C94D5
:1006E0005415A8E1B0E0E7E7F3E00C94381569830E
:1006F0007A838B839C832D833E834F83588789E045
:10070000E82EF12CEC0EFD1ECE010196B7010E94E1
:10071000CA048E010F5E1F4FCE010596B8010E94DC
:10072000CA048985823040F08989823028F0C70167
:10073000B8010E94420501C081E06896E6E00C9491
:100740005415ACE0B0E0E7EAF3E00C943C156983A3
:100750007A838B839C83CE010196BE016B5F7F4FB2
:100760000E94CA048D81823061F1823050F1843060
:1007700021F48E81882351F12EC02F81388537FDD9
:1007800020C06E812F3131051CF06623F9F023C0A3
:100790008EE190E0821B930B29853A854B855C8521
:1007A00004C056954795379527958A95D2F76623C5
:1007B000B1F050954095309521953F4F4F4F5F4F89
:1007C0000EC020E030E040E050E009C02FEF3FEFE6
:1007D0004FEF5FE704C020E030E040E050E8B901AF
:1007E000CA012C96E2E00C945815DF92EF92FF922A
:1007F0000F931F93FC01E480F58006811781D1805F
:100800008081823048F480E090E0A0E1B0E0E82A06
:10081000F92A0A2B1B2BA5C0843009F49FC0823013
:1008200021F4EE24FF24870105C0E114F104010541
:10083000110519F4E0E0F0E096C0628173819FEF4A
:10084000623879070CF05BC022E83FEF261B370BBC
:100850002A3131052CF020E030E040E050E02AC0A1
:10086000B801A701022E04C0769567955795479564
:100870000A94D2F781E090E0A0E0B0E004C0880FD5
:10088000991FAA1FBB1F2A95D2F70197A109B10989
:100890008E219F21A023B1230097A105B10521F04E
:1008A00081E090E0A0E0B0E09A01AB01282B392B69
:1008B0004A2B5B2BDA01C9018F779070A070B07062
:1008C00080349105A105B10539F427FF09C0205CEA
:1008D0003F4F4F4F5F4F04C0215C3F4F4F4F5F4F23
:1008E000E0E0F0E02030A0E03A07A0E04A07A0E412
:1008F0005A0710F0E1E0F0E079018A0127C0603882
:10090000710564F5FB01E158FF4FD801C7018F77EE
:100910009070A070B07080349105A105B10539F4D4
:10092000E7FE0DC080E490E0A0E0B0E004C08FE3FB
:1009300090E0A0E0B0E0E80EF91E0A1F1B1F17FFB1
:1009400005C016950795F794E794319687E01695BC
:100950000795F794E7948A95D1F705C0EE24FF2414
:100960008701EFEFF0E06E2F679566276795902F70
:100970009F77D794DD24D7948E2F8695492F462BC9
:10098000582F5D29B701CA011F910F91FF90EF9079
:10099000DF900895FC01DB01408151812281622FAB
:1009A0006F7770E0221F2227221F9381892F880FE3
:1009B000822B282F30E0991F9927991F11969C931D
:1009C000119721153105A9F54115510561057105ED
:1009D00011F482E037C082E89FEF13969C938E93C8
:1009E00012979A01AB0167E0220F331F441F551F76
:1009F0006A95D1F783E08C930DC0220F331F441FFB
:100A0000551F12968D919C911397019713969C9365
:100A10008E931297203080E0380780E0480780E40A
:100A2000580758F314962D933D934D935C93179765
:100A300008952F3F310579F4411551056105710580
:100A400019F484E08C93089564FF03C081E08C93D3
:100A500012C01C9210C02F57304013963C932E9317
:100A6000129783E08C9387E0440F551F661F771F12
:100A70008A95D1F7706414964D935D936D937C9332
:100A8000179708951F93DC01FB019C91923008F4A5
:100A900047C08081823008F443C0943051F41196ED
:100AA0001C91843099F58181682F70E0611B710978
:100AB0003FC0843021F0923031F48230B9F181812D
:100AC000882389F12DC011961C9111978230F1F085
:100AD00081811817D9F412962D913C911397828138
:100AE00093818217930794F028173907BCF0149666
:100AF0008D919D910D90BC91A02D248135814681D1
:100B00005781281739074A075B0718F4112341F06A
:100B10000AC082179307A407B50740F4112319F000
:100B200061E070E005C06FEF7FEF02C060E070E051
:100B3000CB011F910895DF93CF9300D000D000D058
:100B4000CDB7DEB78A836B834C8319828A81843068
:100B500018F081E08983EDC08B81883018F082E045
:100B60008983E7C08C81882331F08C81813019F032
:100B700083E08983DEC08A81282F30E03E832D8385
:100B80008D819E818130910509F446C02D813E8181
:100B9000223031052CF48D819E81009771F0C7C001
:100BA0002D813E812230310509F465C08D819E8101
:100BB0008330910509F48EC0BAC08C818823A1F4DA
:100BC000AAE3B0E0EAE3F0E08081482F8B81282F90
:100BD00030E081E090E0022E02C0880F991F0A9455
:100BE000E2F7809584238C938C81813009F09FC03B
:100BF000AAE3B0E0EAE3F0E08081482F8B81282F60
:100C000030E081E090E0022E02C0880F991F0A9424
:100C1000E2F7842B8C938BC08C818823A1F4A7E30B
:100C2000B0E0E7E3F0E08081482F8B81282F30E0AF
:100C300081E090E0022E02C0880F991F0A94E2F72B
:100C4000809584238C938C81813009F070C0A7E358
:100C5000B0E0E7E3F0E08081482F8B81282F30E07F
:100C600081E090E0022E02C0880F991F0A94E2F7FB
:100C7000842B8C935CC08C818823A1F4A4E3B0E026
:100C8000E4E3F0E08081482F8B81282F30E081E081
:100C900090E0022E02C0880F991F0A94E2F7809517
:100CA00084238C938C81813009F041C0A4E3B0E0AF
:100CB000E4E3F0E08081482F8B81282F30E081E051
:100CC00090E0022E02C0880F991F0A94E2F7842B4D
:100CD0008C932DC08C818823A1F4A1E3B0E0E1E3E3
:100CE000F0E08081482F8B81282F30E081E090E078
:100CF000022E02C0880F991F0A94E2F78095842380
:100D00008C938C81813099F4A1E3B0E0E1E3F0E0D1
:100D10008081482F8B81282F30E081E090E0022EE7
:100D200002C0880F991F0A94E2F7842B8C9387E006
:100D30008983898126960FB6F894DEBF0FBECDBF9A
:100D4000CF91DF910895DF93CF9300D000D000D0F2
:100D5000CDB7DEB78A836B834C8319828A81843056
:100D600018F081E08983EDC08B81883018F082E033
:100D70008983E7C08C81882331F08C81813019F020
:100D800084E08983DEC08A81282F30E03E832D8372
:100D90008D819E818130910509F446C02D813E816F
:100DA000223031052CF48D819E81009771F0C7C0EF
:100DB0002D813E812230310509F465C08D819E81EF
:100DC0008330910509F48EC0BAC08C818823A1F4C8
:100DD000ABE3B0E0EBE3F0E08081482F8B81282F7C
:100DE00030E081E090E0022E02C0880F991F0A9443
:100DF000E2F7809584238C938C81813009F09FC029
:100E0000ABE3B0E0EBE3F0E08081482F8B81282F4B
:100E100030E081E090E0022E02C0880F991F0A9412
:100E2000E2F7842B8C938BC08C818823A1F4A8E3F8
:100E3000B0E0E8E3F0E08081482F8B81282F30E09C
:100E400081E090E0022E02C0880F991F0A94E2F719
:100E5000809584238C938C81813009F070C0A8E345
:100E6000B0E0E8E3F0E08081482F8B81282F30E06C
:100E700081E090E0022E02C0880F991F0A94E2F7E9
:100E8000842B8C935CC08C818823A1F4A5E3B0E013
:100E9000E5E3F0E08081482F8B81282F30E081E06E
:100EA00090E0022E02C0880F991F0A94E2F7809505
:100EB00084238C938C81813009F041C0A5E3B0E09C
:100EC000E5E3F0E08081482F8B81282F30E081E03E
:100ED00090E0022E02C0880F991F0A94E2F7842B3B
:100EE0008C932DC08C818823A1F4A2E3B0E0E2E3CF
:100EF000F0E08081482F8B81282F30E081E090E066
:100F0000022E02C0880F991F0A94E2F7809584236D
:100F10008C938C81813099F4A2E3B0E0E2E3F0E0BD
:100F20008081482F8B81282F30E081E090E0022ED5
:100F300002C0880F991F0A94E2F7842B8C9387E0F4
:100F40008983898126960FB6F894DEBF0FBECDBF88
:100F5000CF91DF910895DF93CF93CDB7DEB7279779
:100F60000FB6F894DEBF0FBECDBF8A836B835D835F
:100F70004C8319828A81843018F081E0898378C09B
:100F80008B81883018F082E0898372C08A81282F93
:100F900030E03F832E834E815F814130510559F10E
:100FA0008E819F818230910534F42E813F812115FD
:100FB000310569F05BC04E815F814230510579F1A6
:100FC0008E819F818330910509F43DC04FC0E9E3D4
:100FD000F0E08081282F30E08B81882F90E0A901FC
:100FE00002C0559547958A95E2F7CA018170EC8158
:100FF000FD8180833BC0E6E3F0E08081282F30E074
:101000008B81882F90E0A90102C0559547958A955C
:10101000E2F7CA018170EC81FD81808327C0E3E3A0
:10102000F0E08081282F30E08B81882F90E0A901AB
:1010300002C0559547958A95E2F7CA018170EC8107
:10104000FD81808313C0E0E3F0E08081282F30E051
:101050008B81882F90E0A90102C0559547958A950C
:10106000E2F7CA018170EC81FD81808387E089838A
:10107000898127960FB6F894DEBF0FBECDBFCF9102
:10108000DF910895DF93CF9300D000D00F92CDB7BA
:10109000DEB78A836B8319828A81843018F081E0FD
:1010A000898334C08A81282F30E03D832C838C8152
:1010B0009D8181309105D1F02C813D812230310517
:1010C0002CF48C819D81009761F01EC02C813D81A4
:1010D0002230310581F08C819D818330910581F032
:1010E00013C0EAE3F0E08B8180830EC0E7E3F0E019
:1010F0008B81808309C0E4E3F0E08B81808304C0AE
:10110000E1E3F0E08B81808387E0898389810F9020
:101110000F900F900F900F90CF91DF910895DF9374
:10112000CF9300D000D00F92CDB7DEB78A836B8308
:1011300019828A81843018F081E0898334C08A81E1
:10114000282F30E03D832C838C819D818130910557
:10115000D1F02C813D81223031052CF48C819D8190
:10116000009761F01EC02C813D812230310581F055
:101170008C819D818330910581F013C0EBE3F0E019
:101180008B8180830EC0E8E3F0E08B81808309C00F
:10119000E5E3F0E08B81808304C0E2E3F0E08B8143
:1011A000808387E0898389810F900F900F900F9043
:1011B0000F90CF91DF910895DF93CF9300D000D0AF
:1011C00000D0CDB7DEB78A837C836B8319828A8196
:1011D000843018F081E089833CC08A81282F30E078
:1011E0003E832D838D819E8181309105E1F02D819B
:1011F0003E81223031052CF48D819E81009761F073
:1012000026C02D813E8122303105A1F08D819E8145
:1012100083309105B1F01BC0EBE3F0E08081EB81FE
:10122000FC81808314C0E8E3F0E08081EB81FC81E5
:1012300080830DC0E5E3F0E08081EB81FC81808359
:1012400006C0E2E3F0E08081EB81FC81808387E0EF
:101250008983898126960FB6F894DEBF0FBECDBF75
:10126000CF91DF910895DF93CF93CDB7DEB780E0C4
:1012700067E041E00E949B0581E060E041E00E9460
:101280009B0581E061E041E00E949B0580E061E018
:1012900041E00E949B05CF91DF910895DF93CF93AA
:1012A000CDB7DEB76C970FB6F894DEBF0FBECDBFDB
:1012B00081E060E041E00E94A30681E061E040E05F
:1012C0000E94A30680E090E0AAEFB4E4898F9A8F91
:1012D000AB8FBC8F698D7A8D8B8D9C8D20E030E03B
:1012E0004AEF54E40E941702DC01CB018D8B9E8BE8
:1012F000AF8BB88F6D897E898F89988D20E030E023
:1013000040E85FE30E94710388232CF481E090E0C1
:101310009C8B8B8B3FC06D897E898F89988D20E057
:101320003FEF4FE757E40E94110318164CF5698D03
:101330007A8D8B8D9C8D20E030E040E251E40E945C
:101340001702DC01CB01BC01CD010E944100DC0190
:10135000CB019C8B8B8B0FC088EC90E09A8B898B98
:1013600089899A890197F1F79A8B898B8B899C8956
:1013700001979C8B8B8B8B899C89009769F714C094
:101380006D897E898F89988D0E944100DC01CB0197
:101390009C8B8B8B8B899C89988B8F878F85988969
:1013A0000197F1F7988B8F8781E060E040E00E9421
:1013B000A30680E090E0AAEFB4E48B879C87AD871A
:1013C000BE876B857C858D859E8520E030E04AEF69
:1013D00054E40E941702DC01CB018F839887A98710
:1013E000BA876F81788589859A8520E030E040E86A
:1013F0005FE30E94710388232CF481E090E09E83D8
:101400008D833FC06F81788589859A8520E03FEF85
:101410004FE757E40E94110318164CF56B857C8545
:101420008D859E8520E030E040E251E40E94170265
:10143000DC01CB01BC01CD010E944100DC01CB01EC
:101440009E838D830FC088EC90E09C838B838B817F
:101450009C810197F1F79C838B838D819E810197FD
:101460009E838D838D819E81009769F714C06F8163
:10147000788589859A850E944100DC01CB019E8395
:101480008D838D819E819A83898389819A81019739
:10149000F1F79A8389836C960FB6F894DEBF0FBE7E
:1014A000CDBFCF91DF910895DF93CF93CDB7DEB756
:1014B0002E970FB6F894DEBF0FBECDBF81E061E07E
:1014C00041E00E94A30681E060E040E00E94A306A4
:1014D00080E090E0AAEFB4E48B879C87AD87BE875D
:1014E0006B857C858D859E8520E030E04AEF54E455
:1014F0000E941702DC01CB018F839887A987BA87E6
:101500006F81788589859A8520E030E040E85FE347
:101510000E94710388232CF481E090E09E838D83E8
:101520003FC06F81788589859A8520E03FEF4FE73E
:1015300057E40E94110318164CF56B857C858D8548
:101540009E8520E030E040E251E40E941702DC0179
:10155000CB01BC01CD010E944100DC01CB019E8387
:101560008D830FC088EC90E09C838B838B819C8162
:101570000197F1F79C838B838D819E8101979E83D8
:101580008D838D819E81009769F714C06F81788566
:1015900089859A850E944100DC01CB019E838D8361
:1015A0008D819E819A83898389819A810197F1F740
:1015B0009A83898381E061E040E00E94A3062E9631
:1015C0000FB6F894DEBF0FBECDBFCF91DF91089567
:1015D000DF93CF93CDB7DEB780E067E041E00E94B4
:1015E000A306CF91DF910895DF93CF93CDB7DEB7F8
:1015F00080E067E040E00E94A306CF91DF9108956C
:10160000DF93CF93CDB7DEB76D970FB6F894DEBFFB
:101610000FBECDBFF1C080E061E041E00E94A306B3
:1016200080E090E0AAE7B4E4898F9A8FAB8FBC8FFB
:10163000698D7A8D8B8D9C8D20E030E04AEF54E4EB
:101640000E941702DC01CB018D8B9E8BAF8BB88F74
:101650006D897E898F89988D20E030E040E85FE3D6
:101660000E94710388232CF481E090E09C8B8B8B8B
:101670003FC06D897E898F89988D20E03FEF4FE7CD
:1016800057E40E94110318164CF5698D7A8D8B8DE5
:101690009C8D20E030E040E251E40E941702DC0122
:1016A000CB01BC01CD010E944100DC01CB019C8B30
:1016B0008B8B0FC088EC90E09A8B898B89899A89F3
:1016C0000197F1F79A8B898B8B899C8901979C8B69
:1016D0008B8B8B899C89009769F714C06D897E89F3
:1016E0008F89988D0E944100DC01CB019C8B8B8BF4
:1016F0008B899C89988B8F878F8598890197F1F7C3
:10170000988B8F8780E061E040E00E94A30680E034
:1017100090E0AAE7B4E48B879C87AD87BE876B8592
:101720007C858D859E8520E030E04AEF54E40E9460
:101730001702DC01CB018F839887A987BA876F8155
:10174000788589859A8520E030E040E85FE30E9453
:10175000710388232CF481E090E09E838D833FC049
:101760006F81788589859A8520E03FEF4FE757E4C0
:101770000E94110318164CF56B857C858D859E851E
:1017800020E030E040E251E40E941702DC01CB018E
:10179000BC01CD010E944100DC01CB019E838D8301
:1017A0000FC088EC90E09C838B838B819C81019798
:1017B000F1F79C838B838D819E8101979E838D831E
:1017C0008D819E81009769F714C06F817885898526
:1017D0009A850E944100DC01CB019E838D838D811F
:1017E0009E819A83898389819A810197F1F79A83EF
:1017F00089838D8D8F5F8D8F8D8D853008F40BCF14
:1018000080E061E040E00E94A3066D960FB6F89478
:10181000DEBF0FBECDBFCF91DF910895DF93CF9391
:10182000CDB7DEB7E0E4F0E01082E9E2F0E083E378
:101830008083EAE2F0E088E18083E0E4F0E086E89B
:101840008083CF91DF910895DF93CF930F92CDB72F
:10185000DEB78983EBE2F0E08081882F90E0807230
:1018600090700097B9F3ECE2F0E0898180830F90EB
:10187000CF91DF910895DF93CF93CDB7DEB7EBE241
:10188000F0E080818823DCF7ECE2F0E08081CF910A
:10189000DF910895DF93CF9300D00F92CDB7DEB7DD
:1018A0009B838A8319820EC08981282F30E08A8128
:1018B0009B81FC01E20FF31F80810E94240C89812F
:1018C0008F5F89838981282F30E08A819B81FC0189
:1018D000E20FF31F8081882339F70F900F900F904C
:1018E000CF91DF910895DF93CF930F92CDB7DEB7FD
:1018F00004C0ECE2F0E080818983EBE2F0E08081DB
:101900008823BCF30F90CF91DF910895DF93CF939D
:10191000CDB7DEB7C25FD0400FB6F894DEBF0FBEC2
:10192000CDBF0E9433090E940E0C9E01275F3F4FDE
:10193000C157DF4F39832883CF58D04080E491E0EE
:10194000CF56DF4F99838883C159D04097E0CD5659
:10195000DF4F9883C359D040CF56DF4FE881F981DC
:10196000C159D0400080CF56DF4F28813981C159FD
:10197000D0402F5F3F4FCF56DF4F39832883C15967
:10198000D040C157DF4FE881F981CF58D040008265
:10199000C157DF4F28813981CF58D0402F5F3F4F4B
:1019A000C157DF4F39832883CF58D040CD56DF4F02
:1019B0003881C359D0403150CD56DF4F3883C35999
:1019C000D040CD56DF4F8881C359D040882321F6BF
:1019D000FE017096CC56DF4FF983E883C459D0409E
:1019E00027E431E0CA56DF4F39832883C659D040F7
:1019F00037E0C856DF4F3883C859D040CA56DF4F4A
:101A0000E881F981C659D0400080CA56DF4F28814D
:101A10003981C659D0402F5F3F4FCA56DF4F3983B7
:101A20002883C659D040CC56DF4FE881F981C4598C
:101A3000D0400082CC56DF4F28813981C459D04034
:101A40002F5F3F4FCC56DF4F39832883C459D04096
:101A5000C856DF4F3881C859D0403150C856DF4F83
:101A60003883C859D040C856DF4F8881C859D04004
:101A7000882321F6FE017796C756DF4FF983E88366
:101A8000C959D0402EE431E0C556DF4F3983288351
:101A9000CB59D04037E0C356DF4F3883CD59D040C3
:101AA000C556DF4FE881F981CB59D0400080C5563B
:101AB000DF4F28813981CB59D0402F5F3F4FC5562A
:101AC000DF4F39832883CB59D040C756DF4FE88199
:101AD000F981C959D0400082C756DF4F288139812A
:101AE000C959D0402F5F3F4FC756DF4F39832883F6
:101AF000C959D040C356DF4F3881CD59D0403150FD
:101B0000C356DF4F3883CD59D040C356DF4F88814D
:101B1000CD59D040882321F6FE017E96C256DF4F74
:101B2000F983E883CE59D04025E531E0C056DF4F38
:101B300039832883C05AD04037E0CE55DF4F3883F1
:101B4000C25AD040C056DF4FE881F981C05AD04018
:101B50000080C056DF4F28813981C05AD0402F5FA6
:101B60003F4FC056DF4F39832883C05AD040C256FA
:101B7000DF4FE881F981CE59D0400082C256DF4F55
:101B800028813981CE59D0402F5F3F4FC256DF4F59
:101B900039832883CE59D040CE55DF4F3881C25A81
:101BA000D0403150CE55DF4F3883C25AD040CE5549
:101BB000DF4F8881C25AD040882321F6FE01B596B6
:101BC000CD55DF4FF983E883C35AD0402CE531E08F
:101BD000CB55DF4F39832883C55AD04037E0C955EC
:101BE000DF4F3883C75AD040CB55DF4FE881F981AA
:101BF000C55AD0400080CB55DF4F28813981C55A66
:101C0000D0402F5F3F4FCB55DF4F39832883C55AD4
:101C1000D040CD55DF4FE881F981C35AD0400082D2
:101C2000CD55DF4F28813981C35AD0402F5F3F4FB8
:101C3000CD55DF4F39832883C35AD040C955DF4F74
:101C40003881C75AD0403150C955DF4F3883C75A01
:101C5000D040C955DF4F8881C75AD040882321F62C
:101C6000FE01BC96C855DF4FF983E883C85AD040BF
:101C700023E631E0C655DF4F39832883CA5AD04066
:101C800037E0C455DF4F3883CC5AD040C655DF4FBC
:101C9000E881F981CA5AD0400080C655DF4F2881BB
:101CA0003981CA5AD0402F5F3F4FC655DF4F398325
:101CB0002883CA5AD040C855DF4FE881F981C85AF5
:101CC000D0400082C855DF4F28813981C85AD040A2
:101CD0002F5F3F4FC855DF4F39832883C85AD04004
:101CE000C455DF4F3881CC5AD0403150C455DF4FF6
:101CF0003883CC5AD040C455DF4F8881CC5AD0406D
:101D0000882321F6FE01F396C355DF4FF983E8835C
:101D1000CD5AD0402AE631E0C155DF4F39832883C0
:101D2000CF5AD04037E0CF54DF4F3883C15BD0402B
:101D3000C155DF4FE881F981CF5AD0400080C155AD
:101D4000DF4F28813981CF5AD0402F5F3F4FC15597
:101D5000DF4F39832883CF5AD040C355DF4FE88106
:101D6000F981CD5AD0400082C355DF4F2881398197
:101D7000CD5AD0402F5F3F4FC355DF4F3983288363
:101D8000CD5AD040CF54DF4F3881C15BD040315065
:101D9000CF54DF4F3883C15BD040CF54DF4F8881B1
:101DA000C15BD040882321F6FE01FA96CE54DF4F66
:101DB000F983E883C25BD04021E731E0CC54DF4FA8
:101DC00039832883C45BD04037E0CA54DF4F38835F
:101DD000C65BD040CC54DF4FE881F981C45BD04072
:101DE0000080CC54DF4F28813981C45BD0402F5F05
:101DF0003F4FCC54DF4F39832883C45BD040CE544F
:101E0000DF4FE881F981C25BD0400082CE54DF4FC2
:101E100028813981C25BD0402F5F3F4FCE54DF4FC6
:101E200039832883C25BD040CA54DF4F3881C65BF8
:101E3000D0403150CA54DF4F3883C65BD040CA54BB
:101E4000DF4F8881C65BD040882321F6FE01EF5B1F
:101E5000FF4FC954DF4FF983E883C75BD04028E7C1
:101E600031E0C754DF4F39832883C95BD04037E066
:101E7000C554DF4F3883CB5BD040C754DF4FE88178
:101E8000F981C95BD0400080C754DF4F2881398178
:101E9000C95BD0402F5F3F4FC754DF4F3983288342
:101EA000C95BD040C954DF4FE881F981C75BD0409E
:101EB0000082C954DF4F28813981C75BD0402F5F32
:101EC0003F4FC954DF4F39832883C75BD040C55487
:101ED000DF4F3881CB5BD0403150C554DF4F388362
:101EE000CB5BD040C554DF4F8881CB5BD04088238B
:101EF00021F6CE01885B9F4FC454DF4F99838883BE
:101F0000CC5BD040EFE7F1E0C254DF4FF983E883C8
:101F1000CE5BD040F7E0C054DF4FF883C05CD040C8
:101F2000C254DF4FE881F981CE5BD0400080C254BB
:101F3000DF4F28813981CE5BD0402F5F3F4FC254A5
:101F4000DF4F39832883CE5BD040C454DF4FE88114
:101F5000F981CC5BD0400082C454DF4F28813981A5
:101F6000CC5BD0402F5F3F4FC454DF4F3983288371
:101F7000CC5BD040C054DF4F3881C05CD040315082
:101F8000C054DF4F3883C05CD040C054DF4F8881DD
:101F9000C05CD040882321F6CE01815B9F4FCF5398
:101FA000DF4F99838883C15CD040E6E8F1E0CD53F0
:101FB000DF4FF983E883C35CD040F5E0CB53DF4FBC
:101FC000F883C55CD040CD53DF4FE881F981C35C15
:101FD000D0400080CD53DF4F28813981C35CD04091
:101FE0002F5F3F4FCD53DF4F39832883C35CD040F1
:101FF000CF53DF4FE881F981C15CD0400082CF53DD
:10200000DF4F28813981C15CD0402F5F3F4FCF53D4
:10201000DF4F39832883C15CD040CB53DF4F3881F9
:10202000C55CD0403150CB53DF4F3883C55CD040C6
:10203000CB53DF4F8881C55CD040882321F6CE0189
:102040008C5A9F4FCA53DF4F99838883C65CD04018
:10205000EBE8F1E0C853DF4FF983E883C85CD04078
:10206000F5E0C653DF4FF883CA5CD040C853DF4F5A
:10207000E881F981C85CD0400080C853DF4F2881D7
:102080003981C85CD0402F5F3F4FC853DF4F398341
:102090002883C85CD040CA53DF4FE881F981C65C11
:1020A000D0400082CA53DF4F28813981C65CD040BE
:1020B0002F5F3F4FCA53DF4F39832883C65CD04020
:1020C000C653DF4F3881CA5CD0403150C653DF4F12
:1020D0003883CA5CD040C653DF4F8881CA5CD04089
:1020E000882321F6CE01875A9F4FC553DF4F99832E
:1020F0008883CB5CD040E0E9F1E0C353DF4FF98344
:10210000E883CD5CD040F5E0C153DF4FF883CF5C6E
:10211000D040C353DF4FE881F981CD5CD0400080CF
:10212000C353DF4F28813981CD5CD0402F5F3F4FB3
:10213000C353DF4F39832883CD5CD040C553DF4F75
:10214000E881F981CB5CD0400082C553DF4F288104
:102150003981CB5CD0402F5F3F4FC553DF4F398370
:102160002883CB5CD040C153DF4F3881CF5CD04057
:102170003150C153DF4F3883CF5CD040C153DF4F64
:102180008881CF5CD040882321F6CE01825A9F4FB0
:10219000C053DF4F99838883C05DD040E5E9F1E00B
:1021A000CE52DF4FF983E883C25DD040F5E0CC52D8
:1021B000DF4FF883C45DD040CE52DF4FE881F98114
:1021C000C25DD0400080CE52DF4F28813981C25D90
:1021D000D0402F5F3F4FCE52DF4F39832883C25DFF
:1021E000D040C053DF4FE881F981C05DD04000820C
:1021F000C053DF4F28813981C05DD0402F5F3F4FF2
:10220000C053DF4F39832883C05DD040CC52DF4FAD
:102210003881C45DD0403150CC52DF4F3883C45D2B
:10222000D040CC52DF4F8881C45DD040882321F656
:10223000CE018D599F4FCB52DF4F99838883C55D67
:10224000D040EAE9F1E0C952DF4FF983E883C75D86
:10225000D040F5E0C752DF4FF883C95DD040C95286
:10226000DF4FE881F981C75DD0400080C952DF4F60
:1022700028813981C75DD0402F5F3F4FC952DF4F62
:1022800039832883C75DD040CB52DF4FE881F98185
:10229000C55DD0400082CB52DF4F28813981C55DBA
:1022A000D0402F5F3F4FCB52DF4F39832883C55D2E
:1022B000D040C752DF4F3881C95DD0403150C7523E
:1022C000DF4F3883C95DD040C752DF4F8881C95D79
:1022D000D040882321F6CE0188599F4FC652DF4F48
:1022E00099838883CA5DD040EFE9F1E0C452DF4FA3
:1022F000F983E883CC5DD040F5E0C252DF4FF8832C
:10230000CE5DD040C452DF4FE881F981CC5DD04032
:102310000080C452DF4F28813981CC5DD0402F5FCF
:102320003F4FC452DF4F39832883CC5DD040C65223
:10233000DF4FE881F981CA5DD0400082C652DF4F8D
:1023400028813981CA5DD0402F5F3F4FC652DF4F91
:1023500039832883CA5DD040C252DF4F3881CE5DB9
:10236000D0403150C252DF4F3883CE5DD040C25290
:10237000DF4F8881CE5DD040882321F6CE0183597E
:102380009F4FC152DF4F99838883CF5DD040E4EAED
:10239000F1E0CF51DF4FF983E883C15ED040F5E033
:1023A000CD51DF4FF883C35ED040CF51DF4FE8817E
:1023B000F981C15ED0400080CF51DF4F2881398143
:1023C000C15ED0402F5F3F4FCF51DF4F398328830D
:1023D000C15ED040C152DF4FE881F981CF5DD0406E
:1023E0000082C152DF4F28813981CF5DD0402F5FFD
:1023F0003F4FC152DF4F39832883CF5DD040CD514D
:10240000DF4F3881C35ED0403150CD51DF4F38832C
:10241000C35ED040CD51DF4F8881C35ED04088235A
:1024200021F6CE018E589F4FCC51DF4F9983888380
:10243000C45ED040E9EAF1E0CA51DF4FF983E88396
:10244000C65ED040F5E0C851DF4FF883C85ED0408B
:10245000CA51DF4FE881F981C65ED0400080CA5181
:10246000DF4F28813981C65ED0402F5F3F4FCA5170
:10247000DF4F39832883C65ED040CC51DF4FE881DF
:10248000F981C45ED0400082CC51DF4F2881398170
:10249000C45ED0402F5F3F4FCC51DF4F398328833C
:1024A000C45ED040C851DF4F3881C85ED040315043
:1024B000C851DF4F3883C85ED040C851DF4F888194
:1024C000C85ED040882321F6CE0189589F4FC7515E
:1024D000DF4F99838883C95ED040EEEAF1E0C551B1
:1024E000DF4FF983E883CB5ED040F5E0C351DF4F87
:1024F000F883CD5ED040C551DF4FE881F981CB5ED6
:10250000D0400080C551DF4F28813981CB5ED0405B
:102510002F5F3F4FC551DF4F39832883CB5ED040BB
:10252000C751DF4FE881F981C95ED0400082C751B1
:10253000DF4F28813981C95ED0402F5F3F4FC7519F
:10254000DF4F39832883C95ED040C351DF4F3881C4
:10255000CD5ED0403150C351DF4F3883CD5ED04087
:10256000C351DF4F8881CD5ED040882321F6CE0154
:1025700084589F4FC251DF4F99838883CE5ED040ED
:10258000E3EBF1E0C051DF4FF983E883C05FD04057
:10259000F5E0CE50DF4FF883C25FD040C051DF4F2F
:1025A000E881F981C05FD0400080C051DF4F2881B1
:1025B0003981C05FD0402F5F3F4FC051DF4F39831B
:1025C0002883C05FD040C251DF4FE881F981CE5EE1
:1025D000D0400082C251DF4F28813981CE5ED04089
:1025E0002F5F3F4FC251DF4F39832883CE5ED040EB
:1025F000CE50DF4F3881C25FD0403150CE50DF4FD8
:102600003883C25FD040CE50DF4F8881C25FD04058
:10261000882321F618861F821E821C8280E690E0A5
:102620000E944A0C0E94730C1A8211C00E943B0C3B
:102630008D838A81282F30E0CE018F579F4FFC0178
:10264000E20FF31F8D8180838A818F5F8A838A8165
:10265000863060F3FE01EF57FF4F1682CE018F5791
:102660009F4F0E944A0C0E94730C8EE790E00E94DC
:102670004A0C80E890E00E944A0C198211C00E9426
:102680003B0C8D838981282F30E0CE0188579F4FE6
:10269000FC01E20FF31F8D81808389818F5F898325
:1026A0008981843060F3FE01E857FF4F1482CE0128
:1026B00088579F4F0E944A0C8EE790E00E944A0C78
:1026C000CE018F579F4F9E01275F3F4FB9010E9458
:1026D0006315009719F481E088877FC0CE018F577A
:1026E0009F4F9E01205F3F4FB9010E9463150097E5
:1026F00019F482E0888771C0CE018F579F4F9E01E9
:10270000295E3F4FB9010E946315009719F483E0D9
:10271000888763C0CE018F579F4F9E01225E3F4F37
:10272000B9010E946315009719F484E0888755C0A9
:10273000CE018F579F4F9E012B5D3F4FB9010E94E5
:102740006315009719F485E0888747C0CE018F573D
:102750009F4F9E01245D3F4FB9010E946315009772
:1027600019F486E0888739C0CE018F579F4F9E01AC
:102770002D5C3F4FB9010E946315009719F487E063
:1027800088872BC0CE018F579F4F9E01265C3F4FFD
:10279000B9010E946315009719F488E088871DC06D
:1027A000CE018F579F4F9E012F5B3F4FB9010E9473
:1027B0006315009719F489E088870FC0CE018F5701
:1027C0009F4F9E01285B3F4FB9010E946315009700
:1027D00019F48AE0888701C01886CE0188579F4F78
:1027E0009E01215B3F4FB9010E946315009719F4C8
:1027F00081E08F837FC0CE0188579F4F9E012C5A66
:102800003F4FB9010E946315009719F482E08F834E
:1028100071C0CE0188579F4F9E01275A3F4FB90183
:102820000E946315009719F483E08F8363C0CE0183
:1028300088579F4F9E01225A3F4FB9010E9463154E
:10284000009719F484E08F8355C0CE0188579F4FBD
:102850009E012D593F4FB9010E946315009719F44D
:1028600085E08F8347C0CE0188579F4F9E0128592E
:102870003F4FB9010E946315009719F486E08F83DA
:1028800039C0CE0188579F4F9E0123593F4FB90150
:102890000E946315009719F487E08F832BC0CE0147
:1028A00088579F4F9E012E583F4FB9010E946315D4
:1028B000009719F488E08F831DC0CE0188579F4F81
:1028C0009E0129583F4FB9010E946315009719F4E2
:1028D00089E08F830FC0CE0188579F4F9E012458F7
:1028E0003F4FB9010E946315009719F48AE08F8366
:1028F00001C01F828885882339F08F81882321F0C9
:1029000098858F81981791F08DE990E00E944A0C8C
:102910008C818F5F8C838C81833009F098C084EA2E
:1029200090E00E944A0C0E94000B91C01C8284EB34
:1029300090E00E944A0C81E08E8389C08AEC90E08E
:102940000E944A0C8EE790E00E944A0C8FED90E0C6
:102950000E944A0C8EE790E00E944A0C80EF90E0C3
:102960000E944A0C8EE790E00E944A0C81E091E0C0
:102970000E944A0C8EE790E00E944A0C8FE091E0A2
:102980000E944A0C8EE790E00E944A0C8EE191E092
:102990000E944A0C0E94730C1B8203C00E943B0CD5
:1029A0008B838B818823D1F38B81E82FF0E0C35791
:1029B000DF4FF983E883CD58D040C357DF4F2881DC
:1029C0003981CD58D04023333105A9F1C357DF4FAA
:1029D00088819981CD58D040843391059CF4C357A8
:1029E000DF4FE881F981CD58D040E133F105E9F0BE
:1029F000C357DF4F28813981CD58D040223331056C
:102A0000B9F021C0C357DF4F88819981CD58D0409C
:102A10008433910599F0C357DF4FE881F981CD5890
:102A2000D040E533F10569F00EC00E944E090FC099
:102A30000E94540A0CC00E94E80A09C00E94F40ACD
:102A400006C01E8204C08DE291E00E944A0C8E8175
:102A5000882309F073CFE2CD2F923F924F925F927D
:102A60006F927F928F929F92AF92BF92CF92DF929E
:102A7000EF92FF920F931F93CF93DF93CDB7DEB703
:102A8000CA1BDB0B0FB6F894DEBF0FBECDBF099497
:102A90002A88398848885F846E847D848C849B84EE
:102AA000AA84B984C884DF80EE80FD800C811B81FC
:102AB000AA81B981CE0FD11D0FB6F894DEBF0FBE2B
:102AC000CDBFED010895FB01DC018D9101908019CE
:0C2AD0000110D9F3990B0895F894FFCF82
:102ADC00706C6561736520777269746520796F75A8
:102AEC00722075736572206E616D65203A000A0064
:102AFC00706C6561736520777269746520796F7588
:102B0C00722050617373776F7264203A0065727231
:102B1C006F720A00596F75206172652061205468CC
:102B2C006965660057656C636F6D6520496E207929
:102B3C006F757220486F6D650A005468697320497F
:102B4C007320596F75722063686F69636573003108
:102B5C002D3E20546F206F70656E20446F6F720095
:102B6C00322D3E20546F204C6F636B20446F6F727C
:102B7C0000332D3E20546F204F6E204C45440034C2
:102B8C002D3E20546F204F6666204C454400352D59
:102B9C003E20546F204C6F67204F757400456E7447
:102BAC0065722072696768742063686F6963650079
:102BBC0075736572303100757365723032007573E0
:102BCC0065723033007573657230340075736572DD
:102BDC003035007573657230360075736572303739
:102BEC000075736572303800757365723039007515
:102BFC007365723130003131313100323232320092
:102C0C003333333300343434340035353535003612
:102C1C0036363600373737370038383838003939D8
:102C2C003939003130313000000000000000000064
:00000001FF
